{
  "contractName": "Token",
  "abi": [
    {
      "constant": true,
      "inputs": [],
      "name": "totalSupply",
      "outputs": [
        {
          "name": "",
          "type": "uint256"
        }
      ],
      "payable": false,
      "type": "function",
      "stateMutability": "view"
    },
    {
      "constant": true,
      "inputs": [
        {
          "name": "",
          "type": "address"
        }
      ],
      "name": "balanceOf",
      "outputs": [
        {
          "name": "",
          "type": "uint256"
        }
      ],
      "payable": false,
      "type": "function",
      "stateMutability": "view"
    },
    {
      "inputs": [
        {
          "name": "_totalSupply",
          "type": "uint256"
        }
      ],
      "payable": false,
      "type": "constructor",
      "stateMutability": "nonpayable"
    },
    {
      "payable": true,
      "type": "fallback",
      "stateMutability": "payable"
    },
    {
      "anonymous": false,
      "inputs": [
        {
          "indexed": true,
          "name": "_addr",
          "type": "address"
        },
        {
          "indexed": false,
          "name": "_amount",
          "type": "uint256"
        }
      ],
      "name": "Issue",
      "type": "event"
    }
  ],
  "bytecode": "0x60606040526064600255341561001457600080fd5b60405160208061020c8339810160405280805190602001909190505080600081905550506101c5806100476000396000f30060606040526004361061004c576000357c0100000000000000000000000000000000000000000000000000000000900463ffffffff16806318160ddd1461010557806370a082311461012e575b6000670de0b6b3a76400006064340281151561006457fe5b04905080600160003373ffffffffffffffffffffffffffffffffffffffff1673ffffffffffffffffffffffffffffffffffffffff168152602001908152602001600020600082825401925050819055503373ffffffffffffffffffffffffffffffffffffffff167fc65a3f767206d2fdcede0b094a4840e01c0dd0be1888b5ba800346eaa0123c16826040518082815260200191505060405180910390a250005b341561011057600080fd5b61011861017b565b6040518082815260200191505060405180910390f35b341561013957600080fd5b610165600480803573ffffffffffffffffffffffffffffffffffffffff16906020019091905050610181565b6040518082815260200191505060405180910390f35b60005481565b600160205280600052604060002060009150905054815600a165627a7a7230582075bd92bf7a4a62dcf109327e64bf3a2b4870a8ccb5882c004c13af11c0d427550029",
  "source": "pragma solidity ^0.4.0;\n\ncontract Token {\n    uint public totalSupply;\n    mapping (address=>uint)public balanceOf;\n    uint price = 100;\n\n    event Issue(address indexed _addr, uint _amount );\n\n    function Token(uint _totalSupply) {\n        totalSupply = _totalSupply;\n    }\n\n    // Fallback function\n    function () payable{\n        uint amount = msg.value*100/ 1 ether;\n        balanceOf[msg.sender] += amount;\n        Issue(msg.sender, amount);\n    }\n}",
  "sourcePath": "D:\\Code\\gitlab\\eth-wallet\\token\\contracts\\Token.sol",
  "compiler": {
    "name": "solc",
    "version": "0.4.18+commit.9cf6e910.Emscripten.clang"
  },
  "schemaVersion": "1.0.1",
  "updatedAt": "2017-11-25T15:34:15.535Z"
}